:020000040800F2
:1000000000200020110700086107000861070008B0
:1000100000000000000000000000000000000000E0
:100020000000000000000000000000006107000860
:1000300000000000000000006107000861070008E0
:1000400061070008610700086107000861070008F0
:1000500061070008610700086107000861070008E0
:1000600061070008610700086107000861070008D0
:1000700061070008610700086107000861070008C0
:1000800061070008610700086107000861070008B0
:1000900061070008610700086107000861070008A0
:1000A0006107000861070008610700086107000890
:1000B0006107000861070008610700086107000880
:1000C00080B582B000AF7860124B1B68FA229100B5
:1000D000180000F009FA03001A000F4B013A5A60A9
:1000E0000D4B00229A600C4B05221A6006E0C046B8
:1000F000094B1A6880235B021340F9D07B685A1EB3
:100100007A60002BF3D1044B00221A60C046BD4632
:1001100002B080BD0000002010E000E080B500AF1C
:10012000104B9A690F4B0C210A439A610E4B1A68C7
:100130000D4B0E490A401A600B4B1A680A4B0C49CA
:100140000A431A60084B5A68074B82218A435A6057
:10015000084B1A68074B08490A401A60C046BD465A
:1001600080BDC04600100240000C0140F33FFFFF7D
:100170000440000000080140FFFCFFFF80B500AF15
:1001800000F024F8FFF7CAFF0E4B5A690D4B80218F
:100190004A405A61FA235B001800FFF791FF0A4BAF
:1001A0001B691022134006D1064B5A69054B0221E8
:1001B0000A435A61E8E7034B5A69024B02218A431A
:1001C0005A61E1E7000C01400008014080B500AF32
:1001D000184B1A68174B01210A431A60154B5A68CD
:1001E000144B15490A405A60124B1A68114B1349B7
:1001F0000A401A600F4B1A680E4B11490A401A60E8
:100200000C4B5A680B4B0F490A405A60094BE022CD
:100210009201DA62074BBF2212049A600A4B1A68F5
:10022000094B10210A431A6000F0CCF8C046BD46C5
:1002300080BDC046001002400000FF21FFFFF6FE17
:10024000FFFFBFFFFFFF00FE0020024080B586B029
:1002500000AF00237B6100233B610023FB60002390
:10026000BB6000237B60504B5B68504A13407B614E
:100270007A6980231B029A4200D17BE07A6980234D
:100280001B029A4200D979E07B69494A93426CD0BB
:100290007B69474A934200D970E07A698023DB0189
:1002A0009A4213D07A698023DB019A4266D87B692F
:1002B000002B03D07B69082B04D05FE03D4B3E4A06
:1002C0001A605FE03B4B3C4A1A605BE0364B5A6871
:1002D000F0231B0313403B61334B5A68C0239B033D
:1002E0001340FB60304B5A68C0231B041340BB60B3
:1002F0003B691B0C03333B617B681B0E0CD13969D6
:100300000A005201521A93019B1ADB005B185B0230
:100310001A00284B1A600BE039690A005201521A80
:1003200093019B1ADB005B185B021A00214B1A60D9
:10033000FB681B0D0133FB601E4B1B68F96818003E
:1003400000F0D2F803001A001A4B1A60BB689B0D2C
:100350000133BB60174B1B68B968180000F0C4F884
:1003600003001A00134B1A600CE0124B8022120299
:100370001A6007E00F4B114A1A6003E00D4B0E4A5A
:100380001A60C046084B5B681B090F2213400C4AD9
:10039000D35C7B61074B1A687B69DA40054B1A60B6
:1003A000C046BD4606B080BD0010024008C0000037
:1003B000084000000000002000127A0030750000A4
:1003C0009407000880B584B000AF0023BB60002311
:1003D000FB60FB1D00221A703E4B1A683D4B012149
:1003E0000A431A603B4B1B6802221A40FB1D511E38
:1003F0008A411A70FB680133FB60FB1D1B780122E8
:100400005340DBB2002B04D0FA68A023DB009A42F1
:10041000E8D1304B1B6802221A40FB1D511E8A4155
:100420001A70FB1D1B7801225340DBB2002B01D058
:10043000C046FDE7284B1A68274B03218A431A6000
:10044000254B1A68244B02210A431A60214A214B8A
:1004500052685A601F4B5A681E4B20490A405A6026
:100460001C4B5A681B4B1E490A405A60194B5B686B
:10047000BB60BB68C02292021343BB60154BBA68D5
:100480005A60144B1A68134B802149040A431A60BE
:10049000C046104B1A6880239B041340F9D00D4BC3
:1004A0005A680C4B07218A435A600A4B5A68094B19
:1004B00002210A435A60C046064B5B68094A1A404B
:1004C0008023DB019A42F7D1C046C046BD4604B046
:1004D00080BDC0460010024000200240FFFF3FFFE9
:1004E000FFFFC0FE08C00000002934D00123002215
:1004F00010B488422CD301242407A14204D28142A3
:1005000002D209011B01F8E7E400A14204D28142B2
:1005100002D249005B00F8E7884201D3401A1A432F
:100520004C08A04202D3001B5C0822438C08A04266
:1005300002D3001B9C082243CC08A04202D3001B1C
:10054000DC082243002803D01B0901D00909E3E796
:10055000100010BC704701B5002000F00BF802BD80
:100560000029F8D003B5FFF7C1FF0EBC4243891A3A
:100570001847C0467047C04610B50100002300224E
:10058000002000F04DF810BD70B50D4B0D4D5E1BF9
:10059000B610AB4205D0002408CD01349847A642DE
:1005A000FAD800F0EBF8084B084D5E1BB610AB42D2
:1005B00005D0002408CD01349847A642FAD870BD72
:1005C000A4070008A4070008AC070008A407000857
:1005D00070B5074C074D641BA41005D0013CA30067
:1005E000EB589847002CF9D100F0CEF870BDC0460A
:1005F000B0070008AC0700087047C0467047C04607
:100600007047C0467047C0467047C0467047C046F6
:1006100001207047012070477047C0467047C046B0
:10062000F0B5D6464F4646469846244BC0B5060020
:1006300018689A460F009146FFF7E8FF204B1D68A7
:10064000002D32D053466C6818681F2C30DC002E09
:100650000CD1631C0234A4006B606751FFF7DEFF0E
:100660000020E0BCBA46B146A846F0BD4946882203
:10067000A300EB189950C42149008C46AC44614654
:10068000873AA2400968914611436246116084216D
:10069000424649005A50022EDBD129004A468D318C
:1006A000FF310B6813430B60D3E7064D1D60C9E7AC
:1006B000FFF7B4FF01204042D3E7C046040000200A
:1006C000B80100202800002010B5064C2378002B2C
:1006D00007D1054B002B02D0044800E000BF0123E6
:1006E000237010BDBC010020000000007C07000842
:1006F000044B10B5002B03D00349044800E000BFB1
:1007000010BDC04600000000C00100207C070008AA
:100710000D4885460D480E490E4A002302E0D45884
:10072000C4500433C4188C42F9D30B4A0B4C002339
:1007300001E013600432A242FBD3FFF747FDFFF74D
:1007400023FFFFF71BFDFEE7002000200000002034
:1007500008000020B007000808000020D801002091
:10076000FEE70000034B10B5002B02D00248FFF754
:1007700003FF10BD00000000D1050008F8B5C04619
:10078000F8BC08BC9E467047F8B5C046F8BC08BC2B
:040790009E467047CA
:10079400000000000000000001020304060708092D
:0807A40065070008F1060008DA
:0407AC00C906000872
:0807B000006CDC0220000020B7
:0400000508000711D7
:00000001FF
